:100000000C94B0040C9402070C94DB060C94D804F6
:100010000C94D8040C94D8040C94D8040C94D804F0
:100020000C94D8040C94D8040C94D8040C94D804E0
:100030000C94D8040C94D8040C94D8040C94D804D0
:100040000C9491060C94D8040C94D8040C94D80405
:100050000C94D8040C94D8040C94D8040C94D804B0
:100060000C94FD080C94D804084AD73B3BCE016E93
:1000700084BCBFFDC12F3D6C74319ABD56833DDAFF
:100080003D00C77F11BED9E4BB4C3E916BAAAABE0E
:10009000000000803F0001B202FFFF01900409232D
:1000A000A135016A0206000160080000000000009E
:1000B00000000060044000000001620200000060D7
:1000C0000400400000037B034CCD6C03AB033656A9
:1000D0007600680402CB47A202180400058BC10118
:1000E0000C0400000000037F060CC92C97979703AF
:1000F0008903264666006C022000024004000000CE
:100100000002440400000000024804000000000255
:100110004C040000000002500400000000025404DF
:100120000000000002580400000000025C0400000F
:10013000000002BC040000000001EC0400004000CC
:10014000037F060CC92C9797970402030D355D04B5
:100150000904872D353D00A301000000000107863A
:1001600001FE074105F120283038077E013007469F
:10017000019A074704F1283038076C04F128303819
:100180000216020001FB00003E000B0036000100D9
:10019000020003000000650054FFEF0000FA800039
:1001A0000B128200010002000000000000000000AD
:1001B000000000000000280000FFFF4581FFFFFA5B
:1001C0007200000000000003E80000000100017F51
:1001D000FFFFFE8001001B00000000000000000087
:1001E0000000000000003E03304000000002CAE3AF
:1001F000093E8000002000000000000000400000D8
:10020000006000000041FF000000000B2A00001603
:100210005500002182FD872650FD800000001F0050
:100220000000058000000000000001000000020046
:100230000000030000400000000000046F000265A1
:100240003200005EC040000000000000000000001E
:100250000000000000FB8C6F5DFD5D08D9007C7321
:100260003B006C12CC3200139D3200D0D632000815
:1002700000400001F4FFE68079020000000000D099
:10028000D600002710FB0000004000000000000026
:10029000000000000000000001000000000000015C
:1002A00000010000000000FA36FFBC308E0005FBA4
:1002B000F0FFD95BC8FFD09ABE000010A9FFF41E62
:1002C000B200CEBBF70000000100000004000200F5
:1002D000020200000CFFC280000001800000CF80FD
:1002E00000400000000000000100000000000006C7
:1002F00000000000140000000000000000000000EA
:1003000000000000000000000000000000000000ED
:1003100000000000000000000000000000000000DD
:10032000000000000000000000033F68B679352897
:10033000BCC67ED16C80000000400000000000B20E
:100340006A00000000000000000000000000003F04
:10035000F00000003000000000000000000000007D
:10036000000000000000000000000000000000008D
:1003700000000000000000254D002F706D000005FA
:10038000AE000C02D00000000000650054FFEF003A
:100390000000000000000001000044000000000C0C
:1003A0000000000100000000000065000000540093
:1003B00000FFEF000000000000000000000000004F
:1003C00000000000004000000000000000000000ED
:1003D00000000000004000000000000000000000DD
:1003E000000000000000000001000000020000000A
:1003F00000000000000000000000000000000000FD
:1004000000000000000000000000000000000000EC
:100410000000000000001B000000000000000000C1
:1004200000000000000000000000000000000000CC
:1004300000000000000000000000000000000000BC
:100440000040000000001B00000000000000000051
:10045000000000000000000000000000000000009C
:10046000000000000000000000000000000000008C
:10047000000000000000000000000000000000007C
:100480000000000000D8DCBAA2F1DEB2B8B4A88146
:1004900091F74A907F916AF3F9DBA8F9B0BAA0808E
:1004A000F2CE81F3C2F1C1F2C3F3CCA2B280F1C6A5
:1004B000D880BAA7DFDFDFF2A7C3CBC5B6F087A22B
:1004C000942448703C95406834589B78A2F18392FC
:1004D0002D557DD8B1B4B8A1D09180F270F370F2EF
:1004E0007C80A8F101B09887D943D886C988BAA181
:1004F000F20EB89780F1A9DFDFDFAADFDFDFF2AA13
:10050000C5CDC7A90CC92C97979797F1A9892646FD
:1005100066B0B4BA80ACDEF2CAF1B28C02A9B69869
:1005200000890E161EB8A9B4992C547CB08AA896DE
:10053000365676F1B9AFB4B083C0B8A89711B18F71
:1005400098B9AFF0240844106418F1A329557DAF81
:1005500083B593AFF0002850F1A3869F61A6DADE41
:10056000DFD9FAA38696DB31A6D9F8DFBAA68FC207
:10057000C5C7B28CC1B8A2DFDFDFA3DFDFDFD8D809
:10058000F1B8A8B286B4980D355DB8AA98B0872D99
:10059000353DB2B6BAAF8C96198F9FA70E161EB412
:1005A0009AB8AA872C547CB9A3DEDFDFA3B180F20E
:1005B000C4CDC9F1B8A9B499830D355D89B9A32D0E
:1005C000557DB593A30E161EA92C547CB8B4B0F17A
:1005D0009783A81184A50998A383F0DA240844100E
:1005E0006418D8F1A529557DA58595021A2E3A568D
:1005F0005A4048F9F3A3D9F8F098832408441064CA
:10060000189782A8F111F098A2240844106418DA0F
:10061000F3DED883A59401D9A302F1A2C3C5C7D83C
:10062000F18492A24DDA2AD84869D92AD86855DAD5
:1006300032D85071D932D8705DDA3AD85879D93A6F
:10064000D87893A34DDA2AD84869D92AD86855DAD8
:1006500032D85071D932D8705DDA3AD85879D93A4F
:10066000D878A88A9AF02850789EF38818F19F1DB0
:1006700098A8D908D8C89F129EF315A8DA1210D8E6
:10068000F1AFC8978734B5B994A421F3D922D8F231
:100690002DF3D92AD8F235F3D932D881A46060611C
:1006A000D961D86C6869D969D8747071D971D8B1B9
:1006B000A384193D5DA3831A3E5E9310308110110F
:1006C000B8B0AF8F94F2DA3ED8B49AA88729DAF896
:1006D000D8879A35DAF8D8879A3DDAF8D8B1B9A42C
:1006E0009885022E56A581000C14A397B08AF12D8F
:1006F000D928D84DD948D86DD968D8B1840DDA0E2B
:10070000D8A32983DA2C0ED8A3844983DA2C4C0E83
:10071000D8B8B0A88A9AF520AADADFD8A840AAD01B
:10072000DADED8A860AADAD0DFD8F19786A8319BA4
:10073000069907AB9728889BF00C201440B8B0B4FA
:10074000A88C9CF0042851791D301438B282ABD0AB
:10075000982C505078789BF11AB0F08A9CA82951B7
:10076000798B2951798A2470598B2058718A446970
:10077000388B3940688A6448318B304960A58820BD
:100780000971584468113964493019F1AC002C548E
:100790007CF08CA804285078F1889726A85998AC4A
:1007A0008C02264666F0899CA82951792470594408
:1007B0006938644831A98809205970AB11384069FB
:1007C000A8193148608CA83C415C207C00F18798D6
:1007D0001986A86E767EA999882D557D9EB9A38A23
:1007E000228A6E8A568A5E9FB183062646660E2E40
:1007F0004E6E9DB8AD002C547CF2B18CB499B9A367
:100800002D557D8191AC38AD3AB58391AC2DD92869
:10081000D84DD948D86DD968D88C9DAE29D904AEA9
:10082000D851D904AED879D904D881F39DAD008DC3
:10083000AE1981ADD901D8F2AEDA26D88E912983CE
:10084000A7D9ADADADADF32AD8D8F1B0AC89913E02
:100850005E76F3AC2E2EF1B18C5A9CAC2C28282855
:100860009CAC3018A8988128343C9724A728343CA5
:100870009C24F2B089AC912C4C6C8A9B2DD9D8D891
:1008800051D9D8D879D9D8D8F19E88A331DAD8D817
:10089000912DD928D84DD948D86DD968D8B183932E
:1008A000353D8025DAD8D88569DAD8D8B49381A3C4
:1008B00028343CF3AB8BF8A391B609B4D9ABDEFA7C
:1008C000B0879CB9A3DDF1A3A3A3A395F1A3A3A330
:1008D0009DF1A3A3A3A3F2A3B49080F2A3A3A3A327
:1008E000A3A3A3A3A3A3B2A3A3A3A3A3A3B087B5C6
:1008F00099F1A3A3A398F1A3A3A3A397A3A3A3A34D
:10090000F39BA3A3DCB9A7F1262626D8D8FF0000C5
:1009100000080002010000030407000000000000BE
:10092000000000000000240027002A000000000052
:10093000250028002B00040404040404040402021B
:10094000020202020303030303030102040810204E
:1009500040800102040810200102040810208515BF
:1009600011241FBECFEFD8E0DEBFCDBF22E0A4E64A
:10097000B1E001C01D92A73EB207E1F711E0A0E08F
:10098000B1E0E4E1F7E302C005900D92A436B107AF
:10099000D9F714E0C0EBD4E004C02197FE010E9417
:1009A000EA15CF3AD107C9F70E94A20C0C94881B14
:1009B0000C9400003FB7F89480913B0290913C0268
:1009C000A0913D02B0913E0226B5A89B05C02F3FE5
:1009D00019F00196A11DB11D3FBFBA2FA92F982F65
:1009E0008827820F911DA11DB11DBC01CD0142E0E0
:1009F000660F771F881F991F4A95D1F708950895AC
:100A00008091640190E020916501821B9109089515
:100A100085ED8093BC008091BC0084FDFCCF1092DA
:100A2000650208954091F101262F30E0240F311D19
:100A300021323105DCF4209165022430C9F4FC0137
:100A400080E090E0861758F43091F1012191DC01AB
:100A5000A153BE4FA30FB11D2C930196F3CF8091EC
:100A6000F101680F6093F10180E0089581E008953D
:100A700082E008950895E091650180916401E8178E
:100A800030F4F0E0EA5EFD4F808190E008958FEF52
:100A90009FEF08959091650180916401981750F43B
:100AA000E92FF0E0EA5EFD4F208130E09F5F9093F8
:100AB000650102C02FEF3FEFC9010895CF92DF9289
:100AC000EF92FF920F931F93CF93DF937C01262F1A
:100AD000972F8A0180916602882391F0C62FD72F25
:100AE0006E01C40ED51ECC15DD0571F06991D701DC
:100AF000ED91FC910190F081E02DC7010995F3CFB4
:100B0000642F822F0E941205C801DF91CF911F919F
:100B10000F91FF90EF90DF90CF900895CF93DF93E8
:100B20001F92CDB7DEB76983209166022223D1F0F0
:100B300020918902203240F021E030E0FC01338333
:100B4000228380E090E015C080916702E82FF0E0FA
:100B5000E859FD4F998190838F5F8093670280935E
:100B6000890205C061E0CE0101960E94120581E074
:100B700090E00F90DF91CF91089581E0809366011E
:100B800008950E94C51A90E0FC01E25FF64F34918F
:100B9000FC01E65BF64F2491FC01EA5CF64FE49120
:100BA000EE2309F43BC0332339F1333091F038F4AC
:100BB0003130A9F0323001F584B58F7D12C0373065
:100BC00091F03830A1F03430B9F4809180008F7DFD
:100BD00003C0809180008F77809380000DC084B522
:100BE0008F7784BD09C08091B0008F7703C080915A
:100BF000B0008F7D8093B000F0E0EE0FFF1FE45D4A
:100C0000F64FA591B4918FB7F894EC91611103C0A0
:100C100020952E2301C02E2B2C938FBF0895CF93A8
:100C2000DF9390E0FC01E65BF64F2491FC01EA5C67
:100C3000F64F8491882361F190E0880F991FFC01A1
:100C4000EE5DF64FC591D491FC01E45DF64FA591A0
:100C5000B491611109C09FB7F894888120958223CF
:100C60008883EC912E230BC0623061F49FB7F89417
:100C70003881822F809583238883EC912E2B2C93AF
:100C80009FBF06C08FB7F894E8812E2B28838FBFB3
:100C9000DF91CF9108958F929F92AF92BF92CF92A2
:100CA000DF92EF92FF926B017C010E94DA044B010C
:100CB0005C01C114D104E104F104F1F00E94DA04F2
:100CC000DC01CB0188199909AA09BB09883E934028
:100CD000A105B10570F321E0C21AD108E108F108BD
:100CE00088EE880E83E0981EA11CB11CC114D104AB
:100CF000E104F10419F7DDCFFF90EF90DF90CF9082
:100D0000BF90AF909F908F9008952FB7F894609107
:100D10003702709138028091390290913A022FBFC8
:100D200008951F920F920FB60F9211242F933F93A5
:100D30008F939F93AF93BF93809137029091380226
:100D4000A0913902B0913A023091360223E0230F8C
:100D50002D3720F40196A11DB11D05C026E8230FF3
:100D60000296A11DB11D2093360280933702909305
:100D70003802A0933902B0933A0280913B029091DD
:100D80003C02A0913D02B0913E020196A11DB11D11
:100D900080933B0290933C02A0933D02B0933E02AD
:100DA000BF91AF919F918F913F912F910F900FBE67
:100DB0000F901F9018951F920F920FB60F9211244B
:100DC0002F933F934F935F936F937F938F939F9353
:100DD000AF93BF93EF93FF93E0910201F091030172
:100DE0000995FF91EF91BF91AF919F918F917F9165
:100DF0006F915F914F913F912F910F900FBE0F9088
:100E00001F9018951F920F920FB60F9211242F93D7
:100E10003F934F935F936F937F938F939F93AF9382
:100E2000BF93EF93FF93E0910001F09101010995C9
:100E3000FF91EF91BF91AF919F918F917F916F91B2
:100E40005F914F913F912F910F900FBE0F901F9088
:100E50001895EF92FF920F931F93CF93DF9300D0DB
:100E6000CDB7DEB7142F91E090936602809388028D
:100E700010926702109289028AE892E029833A83ED
:100E80000E948E052981022FE22E3A81F32E8E2DAB
:100E9000801B811740F4F70161917F018AE892E09D
:100EA0000E948E05F4CF0E94F60A91E0811190E035
:100EB000892F0F900F90DF91CF911F910F91FF908D
:100EC000EF900895CF93DF931F92CDB7DEB749839C
:100ED0009E012F5F3F4F41E00E9429070F90DF9155
:100EE000CF9108952F923F924F925F926F927F928F
:100EF0008F929F92AF92BF92CF92DF92EF92FF922A
:100F00000F931F93CF93DF93CDB7DEB727970FB61D
:100F1000F894DEBF0FBECDBFE82E6B834F8369010F
:100F20000E9485064B015C016E2C660CF12C1E8222
:100F3000772473945F81452F50E05D834C831801C3
:100F4000412C512C4F81F41608F099C07092660222
:100F5000E092880210926702109289026B818AE8FF
:100F600092E00E948E050E94F60A70926602E0925C
:100F700088021092670210928902809165028111A5
:100F8000FCCF2C813D812F1931092132310514F01C
:100F900020E230E0213208F020E270926502709287
:100FA00064028FEF8093630210926202820F80933B
:100FB0006102709240028091400286298093400233
:100FC00080913F02813071F410923F028091400283
:100FD0008093BB008091BC0083FDF8CF95EC90938B
:100FE000BC0003C0E5EEE093BC0080916502813057
:100FF000E1F380916202821710F420916202A1E471
:10100000B2E0E6E1F2E08E2F46E152E0841B821767
:1010100018F48D918193F7CF1092650120936401AC
:101020009091640180916501981719F101151105DE
:1010300099F4A6012E81420F511D27FD5A955A831E
:1010400049838AE892E00E944A05E981FA81808317
:101050002E812F5F2E83E4CF0E948506DC01CB0119
:1010600088199909AA09BB0982159305A405B50534
:1010700000F38F81813208F080E2F80E63CFFE80AA
:1010800001151105D9F00E948506DC01CB018819F4
:101090009909AA09BB0920E030E080179107A2074F
:1010A000B30760F05F81252F30E08F2D0F2C000CEF
:1010B000990B8217930714F4FF24FA948F2D279627
:1010C0000FB6F894DEBF0FBECDBFDF91CF911F9159
:1010D0000F91FF90EF90DF90CF90BF90AF909F90D7
:1010E0008F907F906F905F904F903F902F900895DA
:1010F000BF92CF92DF92EF92FF920F931F93CF9305
:10110000DF931F92CDB7DEB7F82EE62EC42EB22E97
:10111000D02E08EE13E09E012F5F3F4F41E00E946A
:101120007207882321F1EC2DF0E0EB19F1093196DB
:1011300021E030E002C0220F331FBA94E2F72150C1
:1011400031090E2E01C0220F0A94EAF78D2D01C03D
:10115000880FEA95EAF7422F409599814923282381
:10116000422B49836E2D8F2D0E94620701C080E0C3
:101170000F90DF91CF911F910F91FF90EF90DF9033
:10118000CF90BF900895CF92DF92EF92FF920F938E
:101190001F93CF93DF931F92CDB7DEB7F82EE62EC5
:1011A000D42EC22E08EE13E09E012F5F3F4F41E088
:1011B0000E9472079981CC2041F041E050E001C0CB
:1011C000440FDA94EAF7492B09C021E030E0A90185
:1011D00001C0440FDA94EAF74095492349836E2D04
:1011E0008F2D0E9462070F90DF91CF911F910F9179
:1011F000FF90EF90DF90CF9008951F920F920FB65F
:101200000F9211242F933F934F935F936F937F938C
:101210008F939F93AF93BF93EF93FF938091B90008
:10122000887F803609F49CC068F5883209F45BC079
:1012300090F4803109F454C038F4882309F4F6C0DE
:10124000883009F44DC0F6C0883109F44CC08032B2
:1012500009F45DC0EFC0803409F468C048F48033FD
:1012600009F455C0883309F0E5C080936302D8C003
:10127000803509F44FC0883509F45DC0883409F021
:10128000D9C0D6C0883909F4C7C0A8F4883709F492
:1012900067C038F4883609F463C0803709F460C049
:1012A000C9C0883809F4B8C0803909F45FC08038F3
:1012B00009F0C0C05BC0803B09F486C038F4803AB6
:1012C00009F466C0883A09F47FC0B4C0803C09F4D0
:1012D000A7C0883C09F4A4C0883B09F48AC0AAC00E
:1012E0008091400210C09091620280916102981733
:1012F00070F5E091620281E08E0F80936202F0E06F
:10130000EF5BFD4F80818093BB0085EC86C08093AE
:1013100063028EC0E091620281E08E0F80936202D0
:101320008091BB00F0E0EF5BFD4F80839091620203
:10133000809161026EC0E091620281E08E0F809325
:1013400062028091BB00F0E0EF5BFD4F80838091F3
:10135000640281116DC081E080933F0284EA61C024
:1013600083E08093650210921502CFCF8091150221
:10137000803208F051C0E091150281E08E0F809319
:1013800015028091BB00F0E0EB50FE4F8083BDCF93
:1013900085EC8093BC00109265028091150280322A
:1013A00030F4E0911502F0E0EB50FE4F10826091B6
:1013B000150270E0E091F301F091F40185EF91E006
:1013C00009951092150236C084E080936502109250
:1013D000F2011092F101E091EF01F091F001099515
:1013E0008091F101811105C081E08093F10110929B
:1013F000CF01E091F20181E08E0F8093F201F0E0E5
:10140000E153FE4F80818093BB009091F201809167
:10141000F101981708F479CF85E88093BC000AC0E1
:1014200085EC8093BC001092650204C010926302A8
:101430000E940805FF91EF91BF91AF919F918F910D
:101440007F916F915F914F913F912F910F900FBEC0
:101450000F901F901895AF92BF92CF92DF92EF92AC
:10146000FF920F931F93CF93DF931F92CDB7DEB7F9
:101470005C017B018B016C0184E0C80ED11CF8017A
:1014800061918F01C50169830E94E01A6981681723
:1014900019F0C5010E94E81AFFEFAF1ABF0AAC1499
:1014A000BD0469F7C7010F90DF91CF911F910F9194
:1014B000FF90EF90DF90CF90BF90AF900895CF92C4
:1014C000DF92EF92FF920F931F93CF93DF93EB0185
:1014D0007B0124E0E20EF11C8B016C01C61AD70AD5
:1014E000C601800F911F0E94E01AF80181938F01BD
:1014F000EE15FF05A9F7CE01DF91CF911F910F9156
:10150000FF90EF90DF90CF900895CF92DF92EF920F
:10151000FF920F931F93CF93DF938931910514F0BE
:1015200088E190E097FF02C080E090E0880F991F6B
:10153000FC01E05EFE4FE080F180662311F06894CC
:10154000E0F800E111E0C0E0D0E0CC24C394D12C5D
:10155000C6010C2E02C0880F991F0A94E2F79C0165
:101560002E213F212817390711F460E001C061E006
:10157000F80180810E94C30521960E5F1F4FC8307D
:10158000D10531F7DF91CF911F910F91FF90EF902F
:10159000DF90CF900895CF92DF92EF92FF920F935A
:1015A0001F93CF93DF936C017A018B01C0E0D0E0F1
:1015B000CE15DF0589F0D8016D918D01D601ED9131
:1015C000FC910190F081E02DC6010995892B11F461
:1015D0007E0102C02196ECCFC701DF91CF911F9110
:1015E0000F91FF90EF90DF90CF90089520918902A6
:1015F00090918802213208F04AC0809165028111E1
:10160000FCCF32E03093650231E0309364023FEF6B
:10161000309363021092620220936102A8E6B2E066
:1016200041E452E0FA013E2F341B321718F43D9189
:101630003193F9CF1092400220914002990F922BE2
:101640009093400290913F02913061F410923F02DA
:10165000909140029093BB009091BC0093FDF8CF15
:1016600095EC01C095EE9093BC009091650292308C
:10167000E1F3909163029F3F79F0809163028032A1
:1016800041F080916302803331F084E005C081E055
:1016900003C082E001C083E01092670210928902C9
:1016A0001092660208950F931F93CF93DF93C2EBBE
:1016B000D2E008EE13E023EB32E041E06AE38881F8
:1016C0000E9472078981DF91CF911F910F91089538
:1016D00021E042E06AE68091B2020C94C308482FF0
:1016E0006EE68091B2020C9462072F923F924F9265
:1016F0005F926F927F928F929F92AF92BF92CF92A2
:10170000DF92EF92FF920F931F93CF93DF933C01F1
:101710005B01342EC22F202E4F716DE68091B202F4
:101720000E9462078C2F0E946F0B80E190E00E9464
:10173000CE186C01002331F080E190E00E94CE18B9
:10174000582E492EE12CF12CEA14FB0408F06DC050
:10175000C7014096A816B90618F4DA2DDE1901C0A3
:10176000D0E18D2F90E020E031E02C1B31092817CB
:10177000390714F4DC2FD195F301EE0DFF1D222063
:1017800059F0952DA52DB42D8A2F891B8D1730F476
:1017900084918D933196F8CF5E2E4F2E252D342DCA
:1017A0004D2F6FE68091B2020E9429078D2E912C59
:1017B000C114D10429F1432D4F716DE68091B2021D
:1017C0000E9462078C2F0E946F0B08EE13E09601B7
:1017D0004D2F6FE68091B2020E947207A401B601FC
:1017E000852D942D0E94CA1A892B51F0C6010E94A2
:1017F0006319222021F1852D942D0E9463191FC0A9
:10180000E80CF91CCD0FEA14FB0408F09DCFC111C0
:1018100001C03394432D4F716DE68091B2020E9456
:1018200062078C2F0E946F0B8FCFC6010E94631935
:10183000222039F0852D942D0E94631902C080E08A
:1018400001C081E0DF91CF911F910F91FF90EF9048
:10185000DF90CF90BF90AF909F908F907F906F90D0
:101860005F904F903F902F9008950F931F93462FB6
:1018700008EE13E09C0164E78091B2020E947207B7
:101880001F910F9108950F931F93CF93DF93C2EB96
:10189000D2E008EE13E023EB32E042E062E7888119
:1018A0000E947207898190E0982F88272A81822BD5
:1018B000DF91CF911F910F910895CF93DF93EA01AC
:1018C00091E09093660280938802109267021092D2
:1018D00089028AE892E00E948E0569818AE892E096
:1018E0000E948E0568818AE892E00E948E050E941F
:1018F000F60A91E0811190E0892FDF91CF91089550
:10190000EF92FF920F931F93CF93DF931F92CDB768
:10191000DEB77A0189019E012F5F3F4F41E00E94AF
:101920007207882339F029812E7730E03595279585
:10193000F70120830F90DF91CF911F910F91FF90BE
:10194000EF900895CF93DF93CDB7DEB7C05AD1099A
:101950000FB6F894DEBF0FBECDBF789484B5826019
:1019600084BD84B5816084BD85B5826085BD85B543
:10197000816085BD80916E00816080936E001092C1
:10198000810080918100826080938100809181003C
:1019900081608093810080918000816080938000CD
:1019A0008091B10084608093B1008091B00081602B
:1019B0008093B00080917A00846080937A00809157
:1019C0007A00826080937A0080917A0081608093AF
:1019D0007A0080917A00806880937A001092C1002A
:1019E00010926501109264011092670210928902B0
:1019F0001092650281E08093640210923F0261E0E0
:101A000082E10E94C30561E083E10E94C3058091E9
:101A1000B9008E7F8093B9008091B9008D7F80934B
:101A2000B90088E48093B80085E48093BC0001E0AD
:101A300023E042E06BE68091B2020E94780800E069
:101A400022E044E06BE18091B2020E94780822E03B
:101A500044E06CE18091B2020E94780820E046E008
:101A60006BE68091B2020E94C30821E047E06BE67A
:101A70008091B2020E94C3086EE170E080E090E0C5
:101A80000E944B0620E046E06BE68091B2020E9485
:101A9000C30840E76DE68091B2020E94620786E0CB
:101AA0000E946F0B08EE13E023EB32E041E06FE69B
:101AB0008091B2020E94720740E06DE68091B2020E
:101AC0000E9462079E012F5F3F4F41E060E08091DE
:101AD000B2020E947207898181708093B30228EE5E
:101AE00033E043EB52E060E08091B2020E94800C50
:101AF0008090B30228EE33E043EB52E061E0809146
:101B0000B2020E94800C9090B30228EE33E043EBC7
:101B100052E062E08091B2020E94800CA090B30279
:101B20004FE765E28091B2020E94620720E045E043
:101B30006AE68091B2020E94C30848E665E280919D
:101B4000B2020E94620721E041E06AE68091B2029F
:101B50000E94C30864E170E080E090E00E944B06C0
:101B600001E020E040E069E877E085E891E00E944C
:101B7000750B882309F4F9C288E090E00E94CE1822
:101B8000B82E192FE12CF12CF701EB53FF4F4491A4
:101B9000F701EA53FF4F2491670153E0C50ED11CB2
:101BA000F701E953FF4FE491EE23D1F1EE2EF12C32
:101BB000E330D8F0B7018B2D912FC056DF4F28832B
:101BC000C05AD040C156DF4F4883CF59D0400E9401
:101BD000FB19B82E192FC156DF4F4881CF59D0407D
:101BE000C056DF4F2881C05AD040AB2DB12F80E0C6
:101BF00090E08E159F0548F4F601E80FF91FEB53AE
:101C0000FF4FE491ED930196F4CF00E0B7018B2DE7
:101C1000912F0E94750BEC0CFD1C811117C010C098
:101C200084E0E80EF11CF601EB53FF4FE491E13044
:101C300039F442E368E38091B2020E94620706C071
:101C40008B2D912F0E94631982E090C290ECE916CF
:101C5000F10408F499CF8B2D912F0E94631903E0B2
:101C600023E042E06BE68091B2020E94780842E1F4
:101C700068E38091B2020E94620744E069E18091CA
:101C8000B2020E94620701E023E045E06AE1809130
:101C9000B2020E94780803E023E042E06AE180910A
:101CA000B2020E94780822E044E06BE18091B20227
:101CB0000E94780843E060E78091B2020E946207C8
:101CC00040E061E78091B2020E94620720E040E0BC
:101CD00060E08091B2020E94C308082D26E046E031
:101CE00060E08091B2020E947808092D26E046E06B
:101CF00061E08091B2020E9478080A2D26E046E059
:101D000062E08091B2020E9478088091B202CB56C4
:101D1000DF4F19821882C559D040AE014B565F4F34
:101D200063E10E945D0C8091B202CD56DF4F1982B3
:101D30001882C359D040AE014D565F4F65E10E94F5
:101D40005D0C8091B202CF56DF4F19821882C159C3
:101D5000D040AE014F565F4F67E10E945D0CE12C11
:101D6000F12CF701EA56FF4FE491A1E8B0E0AC0F87
:101D7000BD1FAE0DB11DEC9381E08E0DAFEFEA1AE1
:101D8000FA0AB3E0BE1568F7CD57DF4F6881C35834
:101D9000D04070E09B012E5F3F4F90E0281739073D
:101DA00004F700E0CE57DF4F2881C258D040CF570C
:101DB000DF4F4881C158D04081E890E08C0F9D1FD3
:101DC00003960E94750B80E0F701EA56FF4FE491FD
:101DD000A1E8B0E0AC0FBD1FA80FB11DEC938F5F61
:101DE000EFEFEE1AFE0A843078F3CD57DF4F6881AB
:101DF000C358D04070E0AB014E5F5F4F282F30E0FA
:101E0000421753070CF700E0CE57DF4F2881C25826
:101E1000D040CF57DF4F4881C158D04081E890E093
:101E20008C0F9D1F03960E94750B0E94680B0E94E9
:101E3000430C682FCE0101960E94350C42E06FE101
:101E40008091B2020E9462074CE961E28091B20285
:101E50000E94620740E560E28091B2020E94620740
:101E600040E062E28091B2020E9462070E94680B29
:101E700021E046E06AE68091B2020E94C30821E0B8
:101E800047E06AE68091B2020E94C30821E043E085
:101E90006AE68091B2020E94C30880E0F701EA5628
:101EA000FF4FE491A1E8B0E0AC0FBD1FA80FB11D3A
:101EB000EC938F5FFFEFEF1AFF0A843078F3CD5772
:101EC000DF4F6881C358D04070E0AB014E5F5F4F79
:101ED000282F30E0421753070CF700E0CE57DF4FB2
:101EE0002881C258D040CF57DF4F4881C158D040D9
:101EF00081E890E08C0F9D1F03960E94750B80E097
:101F0000F701EA56FF4FE491A1E8B0E0AC0FBD1F26
:101F1000A80FB11DEC938F5F2FEFE21AF20A843005
:101F200078F3CD57DF4F6881C358D04070E0AB01E4
:101F30004E5F5F4F282F30E0421753070CF700E049
:101F4000CE57DF4F2881C258D040CF57DF4F48814E
:101F5000C158D04081E890E08C0F9D1F03960E94ED
:101F6000750B80E0F701EA56FF4FE491A1E8B0E07D
:101F7000AC0FBD1FA80FB11DEC938F5F4FEFE41A9C
:101F8000F40A843078F3CD57DF4F6881C358D040CE
:101F900070E0AB014E5F5F4F282F30E042175307D0
:101FA0000CF700E0CE57DF4F2881C258D040CF5702
:101FB000DF4F4881C158D04081E890E08C0F9D1FD1
:101FC00003960E94750B0E94430C8330E0F3682F48
:101FD000CE0101960E94350C0E94530B80E0F70160
:101FE000EA56FF4FE491A1E8B0E0AC0FBD1FA80F87
:101FF000B11DEC938F5F5FEFE51AF50A843078F33B
:10200000CD57DF4F3880C358D040832C912CA4018A
:102010004E5F5F4F282F30E04217530704F7CE572B
:10202000DF4FB880C258D040CF57DF4F2880C1580B
:10203000D040422D4F716DE68091B2020E9462073E
:102040008B2D0E946F0BC12CD12C612C77247394A3
:1020500011E8412E512C4C0E5D1E83E0480E511CA0
:10206000C814D90498F5C60140968816990618F444
:10207000A32CAC1802C0A0E1AA2E8A2D90E09301F7
:102080002B1931092817390714F4AB2CA1949201AC
:102090002C0D3D1D08EE13E04A2D6FE68091B20233
:1020A0000E947207CA0CD11CBA0CC814D904C0F61D
:1020B000B11001C02394422D4F716DE68091B202A0
:1020C0000E9462078B2D0E946F0BCACF0E94430CA7
:1020D0008330E0F3682FCE0101960E94350C0E94F8
:1020E000530BF701EA56FF4F80E09491A1E8B0E06E
:1020F000AC0FBD1FA80FB11D9C938F5F843010F4EF
:102100003196F3CFCD57DF4F6881C358D04070E090
:10211000AB014E5F5F4F282F30E04217530784F723
:1021200000E0CE57DF4F2881C258D040CF57DF4F55
:102130004881C158D04081E890E08C0F9D1F0396E4
:102140000E94750B20E047E06AE68091B2020E948F
:10215000C3088AE290E09093B5028093B4020E9493
:10216000680B0E94530B80E001C081E080936701FF
:10217000811122C021E047E06AE68091B2020E940C
:10218000C3088DEB95E0909301018093000180914D
:102190006900836080936900E89A0E94530B8093E2
:1021A000C90181E08093CE018091B4029091B50283
:1021B0009093CB018093CA0100E111E0D8018C918A
:1021C0000E5F1F4F61E00E940F06B1E000321B0757
:1021D000A9F761E083E00E940F0660E083E00E94BF
:1021E000C30562E08EE00E940F066DE771E080E0BB
:1021F00090E00E945F0A69E771E080E190E00E9450
:102200005F0A60E084E090E00E94850A60E082E17D
:1022100090E00E94850A60E570E080E090E00E9416
:102220004B0660E083E190E00E94850A60E570E083
:1022300080E090E00E944B0660E084E190E00E9424
:10224000850A60E570E080E090E00E944B0660E067
:1022500085E190E00E94850A60E570E080E090E012
:102260000E944B0660E086E190E00E94850A60E5EE
:1022700070E080E090E00E944B0660E087E190E033
:102280000E94850A60E570E080E090E00E944B06C5
:1022900060E088E190E00E94850A64EF71E080E0F0
:1022A00090E00E944B06F3E02F2E312C10E4809139
:1022B000CE01882309F474C12091CC013091CD0165
:1022C0008091CA019091CB0140916601411103C0F8
:1022D00028173907C8F3109266010E94530B082F84
:1022E0008093C9010E94430C9093CD018093CC014F
:1022F00004FD04C08115944009F05AC10E94680B86
:1023000080909E0290909F02A090A002B090A102A7
:102310006091960270919702809198029091990233
:10232000A50194010E94701620E030E044E353E4DC
:102330000E9439182BED3FE049E450E40E94CF168B
:102340006B017C0160938501709386018093870106
:102350009093880160919A0270919B0280919C02F7
:1023600090919D02A50194010E94701620E030E03A
:1023700044E353E40E9439182BED3FE049E450E474
:102380000E94CF164B015C01609381017093820122
:10239000809383019093840120917D0130917E018F
:1023A00040917F0150918001C701B6010E94F01554
:1023B0006B017C0120E030E0A9010E942C1826016D
:1023C0003701181624F077FA709477F870942091FA
:1023D000790130917A0140917B0150917C01C501D6
:1023E000B4010E94F0154B015C0120E030E0A9012E
:1023F0000E942C18A501940118160CF05058C30126
:10240000B2010E942C1820E030E0A90118160CF04F
:1024100013C2C701B6010E942C18181624F0F7FA4F
:10242000F094F7F8F094C0927501D0927601E092A2
:102430007701F092780120E030E0A901C701B601F0
:102440000E942C1818160CF0FEC1C701B6010E949C
:102450004117A9E0B0E09B01AC010E94151B653C4F
:102460007F4F8F4F9F4F0CF4FAC120E030E0A9015D
:10247000C701B6010E942C1818160CF0E8C1C7015C
:10248000B6010E944117A9E0B0E09B01AC010E9497
:10249000151B68357240810591050CF0E3C120E001
:1024A00030E0A901C701B6010E942C1818160CF0E3
:1024B000D2C1C701B6010E944117A9E0B0E09B015B
:1024C000AC010E94151B2CE330E040E050E00E947C
:1024D000F61A3093740120937301233031050CF404
:1024E000C4C181E08093720110937C0080917A00D6
:1024F000806480937A0080917A0086FDFCCF809181
:1025000078002091790090E0922B20917101222394
:1025100009F4AEC1853F51E095070CF4BBC11092A0
:10252000700110926F011092710180916E018823E9
:1025300009F4CEC180916E018111DDC10E94850632
:1025400020917201222309F479C22091680130910F
:102550006901AB01421B530B453651050CF05CC2BF
:102560008091040190910501EE24EA94F12CE81A7F
:10257000F90A61E083E00E940F06E114F10409F01A
:1025800075C260E083E00E94C30580917301909161
:10259000740161E0833091050CF460E00E94850ACB
:1025A00040E050E0452B09F482CE0E9400007ECE30
:1025B00000FFA6CEE090CC01F090CD01C090CA0102
:1025C000D090CB01EC14FD0438F40E94430C90939E
:1025D000CD018093CC01EECF6C2D89E891E00E9473
:1025E000350CEC18FD08F092CD01E092CC01C090C2
:1025F0008D01D12CDC2CCC2480918E01C80ED11CF5
:10260000E0909101F12CFE2CEE2480919201E80ED5
:10261000F11C60909501712C762C662480919601B6
:10262000680E711C6091890170E0762F6627809199
:102630008A01680F711D072E000C880B990B0E94F0
:10264000791720E030E040E858E30E9439184B0148
:102650005C016093A2027093A3028093A402909302
:10266000A502B601DD0C880B990B0E94791720E0BA
:1026700030E040E858E30E943918C956DF4F6883BC
:1026800079838A839B83C759D0406093A602709355
:10269000A7028093A8029093A902B701FF0C880BB0
:1026A000990B0E94791720E030E040E858E30E943F
:1026B00039186B017C016093AA027093AB0280937E
:1026C000AC029093AD02B301770C880B990B0E947A
:1026D000791720E030E040E858E30E9439182B01D8
:1026E0003C016093AE027093AF028093B00290936E
:1026F000B1029B01AC01C956DF4F688179818A81A3
:102700009B81C759D0400E943918C556DF4F688356
:1027100079838A839B83CB59D040A7019601C50159
:10272000B4010E9439189B01AC01C556DF4F688186
:1027300079818A819B81CB59D0400E94F0159B0101
:10274000AC010E94F11560939602709397028093FA
:10275000980290939902C956DF4F288139814A81A6
:102760005B81C759D040C501B4010E943918C556D4
:10277000DF4F688379838A839B83CB59D040A30141
:102780009201C701B6010E9439189B01AC01C556E0
:10279000DF4F688179818A819B81CB59D0400E942B
:1027A000F1159B01AC010E94F11560939A027093A0
:1027B0009B0280939C0290939D02A5019401C50108
:1027C000B4010E9439184B015C01C956DF4F2881C2
:1027D00039814A815B81C759D040CA01B9010E9441
:1027E00039189B01AC01C501B4010E94F0154B01E1
:1027F0005C01A7019601C701B6010E9439189B012F
:10280000AC01C501B4010E94F0156B017C01A3016C
:102810009201C301B2010E9439189B01AC01C701AA
:10282000B6010E94F11560939E0270939F028093FF
:10283000A0029093A10264CDC501B4010E942C189E
:1028400075016401EACDC701B601905800CEC701F9
:10285000B601905816CEC701B60190582CCE20E094
:1028600030E037CE29E030E034CE109272013CCE19
:10287000843F41E094070CF043C180916F01909137
:102880007001892B59F40E94850670937001609342
:102890006F0104C0843F914009F447CE0E94850631
:1028A000C0906F01D09070010D2C000CEE08FF0855
:1028B000DC01CB018C199D09AE09BF09813D974010
:1028C000A105B10508F431CE81E0809371012DCED0
:1028D00080917101882309F42DCE81E080936E01EF
:1028E00010926D0110926C010E94850670936B012D
:1028F00060936A011FCE0E948506C0906A01D09045
:102900006B010D2C000CEE08FF08DC01CB018C19CB
:102910009D09AE09BF09853F9140A105B10530F081
:1029200010926E0110926B0110926A01E0906C019E
:10293000F0906D01B7016F5F7F4F072E000C880B81
:10294000990B0E9479174B015C01B7010F2C000C09
:10295000880B990B0E94791720917D0130917E019F
:1029600040917F01509180010E943918209185018A
:102970003091860140918701509188010E94F115A4
:10298000A50194010E94CF1660937D0170937E0192
:1029900080937F01909380012091790130917A0199
:1029A00040917B0150917C01C501B4010E9439180E
:1029B00020918101309182014091830150918401E5
:1029C0000E94F1154B015C01B7016E5F7F4F709360
:1029D0006D0160936C01072E000C880B990B0E940F
:1029E00079179B01AC01C501B4010E94CF16609319
:1029F000790170937A0180937B0190937C016DE75C
:102A000071E080E090E00E942B0A69E771E080E1CC
:102A100090E00E942B0A92CD709369016093680147
:102A200080910401909105014E9729F4309205019F
:102A30002092040195CD8EE190E013C0A091730126
:102A4000B091740121E130E00E94E31522E030E012
:102A500040E050E00E94F61ADA01C9010396A11D78
:102A6000B11D90930501809304017ACD9FEFE91683
:102A7000F10411F461E086CDE1E1F9E08491833065
:102A8000F9F048F48130B9F08230A1F584B5806264
:102A900084BDE8BC7ACD8730E9F0883019F1843004
:102AA00049F580918000806280938000F0928B00D5
:102AB000E0928A006ACD84B5806884BDE7BC65CDAC
:102AC00080918000806880938000F0928900E0927D
:102AD00088005BCD8091B00080688093B000E09268
:102AE000B30053CD8091B00080628093B000E0923B
:102AF000B4004BCDF0E8EF16F1040CF0BBCF41CDA4
:102B0000843F914009F00BCD10CDEAE8F2E013824A
:102B1000128288EE93E0A0E0B0E084839583A683E0
:102B2000B78388E591E09183808388E68093B20241
:102B3000E2EAF2E080E090E0A0E8BFE380839183E6
:102B4000A283B3831482158216821782108611869F
:102B5000128613861486158616861786EDEDF2E02A
:102B6000118210821382128215821482E7EDF2E044
:102B7000118210821382128215821482E1EDF2E03A
:102B8000118210821382128215821482E6E9F2E029
:102B90001082118212821382148215821682178289
:102BA0001086118612861386E5ECF2E010821182FF
:102BB0001282138214821582168217821086118661
:102BC0001286138608950E94421BB7FF0895821B48
:102BD000930B0895EE0FFF1F0590F491E02D0994DB
:102BE0005058BB27AA270E9408160C94F2170E947F
:102BF000E41738F00E94EB1720F039F49F3F19F4E6
:102C000026F40C94BA170EF4E095E7FB0C94B41775
:102C1000E92F0E94031858F3BA1762077307840755
:102C2000950720F079F4A6F50C9425180EF4E0959C
:102C30000B2EBA2FA02D0B01B90190010C01CA0176
:102C4000A0011124FF27591B99F0593F50F4503E21
:102C500068F11A16F040A22F232F342F4427585F13
:102C6000F3CF469537952795A795F0405395C9F72B
:102C70007EF41F16BA0B620B730B840BBAF09150E3
:102C8000A1F0FF0FBB1F661F771F881FC2F70EC082
:102C9000BA0F621F731F841F48F487957795679555
:102CA000B795F7959E3F08F0B0CF9395880F08F041
:102CB0009927EE0F9795879508950E94E41760F085
:102CC00080E891E009F49EEF0E94EB1728F040E8BD
:102CD00051E071F45EEF0CC00C94BA170C942518F7
:102CE000E92FE0780E94031840F3092E052AB1F37A
:102CF000261737074807590738F00E2E07F8E02542
:102D000069F0E025E0640AC0EF6307F8009407FA71
:102D1000DB01B9019D01DC01CA01AD01EF930E9405
:102D2000E6160E94F2170E94A0165F91552339F013
:102D30002BED3FE049E450FD49EC0C94F11508956A
:102D4000DF93DD27B92FBF7740E85FE3161617063C
:102D500048075B0718F4D92F0E9431189F938F936F
:102D60007F936F930E94A618E8E6F0E00E94BD17DB
:102D70000E94F2172F913F914F915F910E944C1842
:102D8000DD2351F09058A2EA2AED3FE049EC5FE3E1
:102D9000D0785D270E940816DF910C94F2170E94EC
:102DA000E3160C94F2170E94EB1758F00E94E417F8
:102DB00040F029F45F3F29F00C94B41751110C94A2
:102DC00026180C94BA170E94031868F39923B1F3DC
:102DD000552391F3951B550BBB27AA276217730741
:102DE000840738F09F5F5F4F220F331F441FAA1FD5
:102DF000A9F335D00E2E3AF0E0E832D09150504091
:102E0000E695001CCAF72BD0FE2F29D0660F771F3E
:102E1000881FBB1F261737074807AB07B0E809F024
:102E2000BB0B802DBF01FF2793585F4F3AF09E3FA9
:102E3000510578F00C94B4170C9426185F3FE4F316
:102E4000983ED4F3869577956795B795F7959F5FEC
:102E5000C9F7880F911D9695879597F90895E1E038
:102E6000660F771F881FBB1F621773078407BA0797
:102E700020F0621B730B840BBA0BEE1F88F7E095F2
:102E800008950E9448176894B1110C94261808956B
:102E90000E940B1888F09F5798F0B92F9927B751C7
:102EA000B0F0E1F0660F771F881F991F1AF0BA95EE
:102EB000C9F714C0B13091F00E942518B1E008950F
:102EC0000C942518672F782F8827B85F39F0B93F01
:102ED000CCF3869577956795B395D9F73EF49095A1
:102EE0008095709561957F4F8F4F9F4F0895E8941F
:102EF00009C097FB3EF490958095709561957F4F42
:102F00008F4F9F4F9923A9F0F92F96E9BB279395EF
:102F1000F695879577956795B795F111F8CFFAF4FF
:102F2000BB0F11F460FF1BC06F5F7F4F8F4F9F4F30
:102F300016C0882311F096E911C0772321F09EE88E
:102F4000872F762F05C0662371F096E8862F70E0F4
:102F500060E02AF09A95660F771F881FDAF7880FCE
:102F60009695879597F9089597F99F6780E870E09F
:102F700060E008959FEF80EC0895DF93CF931F9357
:102F80000F93FF92EF92DF927B018C01689406C051
:102F9000DA2EEF010E944C18FE01E894A5912591CC
:102FA000359145915591A6F3EF010E940816FE0157
:102FB0009701A801DA9469F7DF90EF90FF900F91E5
:102FC0001F91CF91DF91089500240A9416161706D9
:102FD00018060906089500240A941216130614060A
:102FE00005060895092E0394000C11F4882352F06D
:102FF000BB0F40F4BF2B11F460FF04C06F5F7F4F25
:103000008F4F9F4F089557FD9058440F551F59F00B
:103010005F3F71F04795880F97FB991F61F09F3FC5
:1030200079F087950895121613061406551FF2CFEE
:103030004695F1DF08C0161617061806991FF1CF3E
:1030400086957105610508940895E894BB27662765
:103050007727CB0197F908950E94AA1808F48FEFFB
:1030600008959B01AC0160E070E080E89FE30C9460
:10307000CF160E944C180C94F2170E94E41738F0F7
:103080000E94EB1720F0952311F00C94B4170C94C8
:10309000BA1711240C9426180E94031870F3959FF8
:1030A000C1F3950F50E0551F629FF001729FBB273F
:1030B000F00DB11D639FAA27F00DB11DAA1F649FDB
:1030C0006627B00DA11D661F829F2227B00DA11D8E
:1030D000621F739FB00DA11D621F839FA00D611D14
:1030E000221F749F3327A00D611D231F849F600D35
:1030F000211D822F762F6A2F11249F5750409AF05E
:10310000F1F088234AF0EE0FFF1FBB1F661F771FE9
:10311000881F91505040A9F79E3F510580F00C94B4
:10312000B4170C9426185F3FE4F3983ED4F38695C9
:1031300077956795B795F795E7959F5FC1F7FE2B54
:10314000880F911D9695879597F908959B01AC017D
:103150000C943918990F0008550FAA0BE0E8FEEF00
:1031600016161706E807F907C0F012161306E4074B
:10317000F50798F0621B730B840B950B39F40A2644
:1031800061F0232B242B252B21F408950A2609F422
:10319000A140A6958FEF811D811D0895CF93DF93E8
:1031A0008230910510F482E090E0E091E502F09128
:1031B000E60220E030E0C0E0D0E0309711F140813D
:1031C000518148175907C0F04817590761F48281A7
:1031D0009381209719F09B838A832BC09093E602FA
:1031E0008093E50226C02115310519F042175307D7
:1031F00018F49A01BE01DF01EF010280F381E02D96
:10320000DCCF2115310509F1281B390B243031059C
:1032100090F412968D919C9113976115710521F090
:10322000FB019383828304C09093E6028093E502BE
:10323000FD01329644C0FD01E20FF31F819391938B
:10324000225031092D933C933AC02091E3023091F2
:10325000E402232B41F420910801309109013093BD
:10326000E4022093E3022091060130910701211529
:10327000310541F42DB73EB740910A0150910B0141
:10328000241B350BE091E302F091E402E217F3070F
:10329000A0F42E1B3F0B2817390778F0AC014E5FC6
:1032A0005F4F2417350748F04E0F5F1F5093E4021D
:1032B0004093E3028193919302C0E0E0F0E0CF01FC
:1032C000DF91CF9108950F931F93CF93DF930097D2
:1032D00009F48CC0FC013297138212820091E5023E
:1032E0001091E6020115110581F420813181820FD0
:1032F000931F2091E3023091E4022817390779F5F2
:10330000F093E402E093E30271C0D80140E050E0A2
:10331000AE17BF0750F412962D913C911397AD0153
:103320002115310509F1D901F3CF9D01DA0133836C
:10333000228360817181860F971F8217930769F43A
:10334000EC0128813981260F371F2E5F3F4F3183D3
:1033500020838A819B8193838283452B29F4F09378
:10336000E602E093E50242C01396FC93EE931297B7
:10337000ED01499159919E01240F351FE217F30782
:1033800071F480819181840F951F029611969C9310
:103390008E938281938113969C938E931297E0E093
:1033A000F0E0D80112968D919C911397009719F037
:1033B000F8018C01F6CF8D919C9198012E5F3F4FC3
:1033C000820F931F2091E3023091E40228173907FE
:1033D00069F4309729F41092E6021092E50202C0D7
:1033E000138212821093E4020093E302DF91CF91E3
:1033F0001F910F910895A0E0B0E0E1E0FAE10C9494
:10340000551BEC01009721F4CB010E94CE18B8C0E7
:10341000FC01E60FF71F9C0122503109E217F30768
:1034200008F4ACC0D9010D911C911197061717072C
:10343000B0F00530110508F49FC0C8010497861745
:10344000970708F499C002501109061B170B019346
:1034500011936D937C93CF010E9463198DC05B0122
:10346000A01AB10A4C01800E911EA091E502B09104
:10347000E60240E050E0E12CF12C109709F44AC03C
:10348000A815B905D1F56D907C901197630182E084
:10349000C80ED11CCA14DB0480F1A3014A195B09D0
:1034A0006A0182E0C80ED11C1296BC901297139646
:1034B000AC91B5E0CB16D10440F0B282A383518326
:1034C0004083D9016D937C930AC00E5F1F4FC301E7
:1034D000800F911FF90191838083EB2DFA2FE11466
:1034E000F10431F0D7011396FC93EE93129744C088
:1034F000F093E602E093E5023FC08D919C91119715
:103500004817590708F4AC017D0112960D90BC9143
:10351000A02DB3CF8091E3029091E4028815990524
:10352000E1F446175707C8F480910601909107010E
:10353000009741F48DB79EB740910A0150910B015D
:10354000841B950BE817F907C8F4F093E402E093A5
:10355000E302F901718360830FC0CB010E94CE1892
:103560007C01009759F0A801BE010E94D71ACE0134
:103570000E946319C70104C0CE0102C080E090E040
:10358000CDB7DEB7EEE00C94711B81E090E0F894CB
:103590000C94881BFB01DC0104C08D910190801903
:1035A00021F441505040C8F7881B990B0895FB0146
:1035B000DC0102C001900D9241505040D8F70895AF
:1035C000F999FECF92BD81BDF89A992780B50895EB
:1035D000262FF999FECF1FBA92BD81BD20BD0FB62F
:1035E000F894FA9AF99A0FBE01960895052E97FB62
:1035F0001EF400940E940D1B57FD07D00E94201B53
:1036000007FC03D04EF40C940D1B5095409530955B
:1036100021953F4F4F4F5F4F08959095809570953E
:1036200061957F4F8F4F9F4F08950E94421BA59F2A
:10363000900DB49F900DA49F800D911D11240895AD
:10364000A1E21A2EAA1BBB1BFD010DC0AA1FBB1FA6
:10365000EE1FFF1FA217B307E407F50720F0A21B18
:10366000B30BE40BF50B661F771F881F991F1A9485
:1036700069F760957095809590959B01AC01BD01AF
:10368000CF010895A29FB001B39FC001A39F700D09
:10369000811D1124911DB29F700D811D1124911D5A
:1036A00008952F923F924F925F926F927F928F92E6
:1036B0009F92AF92BF92CF92DF92EF92FF920F93C1
:1036C0001F93CF93DF93CDB7DEB7CA1BDB0B0FB6CB
:1036D000F894DEBF0FBECDBF09942A883988488888
:1036E0005F846E847D848C849B84AA84B984C8841E
:1036F000DF80EE80FD800C811B81AA81B981CE0F15
:10370000D11D0FB6F894DEBF0FBECDBFED010895F9
:04371000F894FFCF5B
:10371400FF04FF04FF000000E70280000100000036
:1037240008000C000B0005000600070009000A0051
:10373400FC006000DA00F2006600B600BE00E4009F
:10374400FE00F60001008000400020001000080088
:103754000400020090004800240090004800240067
:103764000000E803000000008E055E0500054A0520
:043774003B053A05D2
:00000001FF
